:020000040800F2
:1000000000000220C53F0008154000081540000808
:1000100015400008154000081540000800000000C9
:100020000000000000000000000000001540000873
:10003000154000080000000015400008632B000870
:10004000154000081540000815400008154000083C
:100050001540000815400008592C00085F2C0008C6
:10006000652C00086B2C0008712C00081540000856
:10007000154000081540000815400008154000080C
:1000800015400008154000081540000815400008FC
:10009000154000081540000815400008772C00089E
:1000A0000D280008252700082128000849270008F6
:1000B0005D27000871270008852700081540000803
:1000C00015400008154000081540000815400008BC
:1000D00015400008413900085939000875390008F1
:1000E0009F2C00081540000815400008352800081E
:1000F000D527000849280008F927000815400008FE
:100100001540000815400008992700081540000810
:1001100091390008A9390008AD270008C127000857
:10012000154000081540000815400008154000085B
:10013000154000081540000815400008154000084B
:10014000154000081540000815400008154000083B
:10015000154000081540000815400008C139000886
:10016000154000081540000815400008154000081B
:100170001540000815400008154000080000000068
:080180001540000815400008BD
:10018800034613F8012B002AFBD1181A01387047CF
:1001980081F0004102E000BF83F0004330B54FEA30
:1001A80041044FEA430594EA050F08BF90EA020F9D
:1001B8001FBF54EA000C55EA020C7FEA645C7FEA30
:1001C800655C00F0E2804FEA5454D4EB5555B8BF53
:1001D8006D420CDD2C4480EA020281EA030382EAC4
:1001E800000083EA010180EA020281EA0303362D56
:1001F80088BF30BD11F0004F4FEA01314FF4801C29
:100208004CEA113102D0404261EB410113F0004F3A
:100218004FEA03334CEA133302D0524263EB4303F1
:1002280094EA050F00F0A780A4F10104D5F1200E8F
:100238000DDB02FA0EFC22FA05F2801841F10001EA
:1002480003FA0EF2801843FA05F359410EE0A5F1BE
:1002580020050EF1200E012A03FA0EFC28BF4CF0EF
:10026800020C43FA05F3C01851EBE37101F00045A5
:1002780007D54FF0000EDCF1000C7EEB00006EEBB2
:100288000101B1F5801F1BD3B1F5001F0CD349083C
:100298005FEA30004FEA3C0C04F101044FEA445293
:1002A80012F5800F80F09A80BCF1004F08BF5FEA1A
:1002B800500C50F1000041EB045141EA050130BDFA
:1002C8005FEA4C0C404141EB0101013C28BFB1F50C
:1002D800801FE9D291F0000F04BF01460020B1FA57
:1002E80081F308BF2033A3F10B03B3F120020CDA2A
:1002F8000C3208DD02F1140CC2F10C0201FA0CF008
:1003080021FA02F10CE002F11402D8BFC2F1200C6C
:1003180001FA02F120FA0CFCDCBF41EA0C01904022
:10032800E41AA2BF01EB0451294330BD6FEA04046B
:100338001F3C1CDA0C340EDC04F11404C4F1200256
:1003480020FA04F001FA02F340EA030021FA04F368
:1003580045EA030130BDC4F10C04C4F1200220FABF
:1003680002F001FA04F340EA0300294630BD21FAFD
:1003780004F0294630BD94F0000F83F4801306BFC3
:1003880081F480110134013D4EE77FEA645C18BFB7
:100398007FEA655C29D094EA050F08BF90EA020F4E
:1003A80005D054EA000C04BF1946104630BD91EA46
:1003B800030F1EBF0021002030BD5FEA545C05D149
:1003C8004000494128BF41F0004130BD14F5800488
:1003D8003CBF01F5801130BD01F0004545F0FE41FC
:1003E80041F470014FF0000030BD7FEA645C1ABF31
:1003F800194610467FEA655C1CBF0B46024650EA68
:10040800013406BF52EA033591EA030F41F4002193
:1004180030BD00BF90F0000F04BF0021704730B519
:100428004FF4806404F132044FF000054FF00001EE
:1004380050E700BF90F0000F04BF0021704730B5AF
:100448004FF4806404F1320410F0004548BF404284
:100458004FF000013EE700BF42004FEAE2014FEAD9
:1004680031014FEA02701FBF12F07F4393F07F4FB4
:1004780081F06051704732F07F4208BF704793F0B7
:100488007F4F04BF41F40021704730B54FF46074CA
:1004980001F0004521F000411CE700BF50EA0102CD
:1004A80008BF704730B54FF000050AE050EA010276
:1004B80008BF704730B511F0004502D5404261EBE6
:1004C80041014FF4806404F132045FEA915C3FF427
:1004D800D8AE4FF003025FEADC0C18BF03325FEAC4
:1004E800DC0C18BF033202EBDC02C2F1200300FA75
:1004F80003FC20FA02F001FA03FE40EA0E0021FA9A
:1005080002F11444BDE600BF70B54FF0FF0C4CF487
:10051800E06C1CEA11541DBF1CEA135594EA0C0F39
:1005280095EA0C0F00F0DEF82C4481EA030621EA74
:100538004C5123EA4C5350EA013518BF52EA0335AF
:1005480041F4801143F4801338D0A0FB02CE4FF061
:100558000005E1FB02E506F00042E0FB03E54FF091
:100568000006E1FB03569CF0000F18BF4EF0010E89
:10057800A4F1FF04B6F5007F64F5407404D25FEA85
:100588004E0E6D4146EB060642EAC62141EA555138
:100598004FEAC52040EA5E504FEACE2EB4F1FD0C7A
:1005A80088BFBCF5E06F1ED8BEF1004F08BF5FEAF8
:1005B800500E50F1000041EB045170BD06F00046AA
:1005C80046EA010140EA020081EA0301B4EB5C0457
:1005D800C2BFD4EB0C0541EA045170BD41F480114F
:1005E8004FF0000E013C00F3AB8014F1360FDEBF74
:1005F800002001F0004170BDC4F10004203C35DA50
:100608000C341BDC04F11404C4F1200500FA05F3D2
:1006180020FA04F001FA05F240EA020001F0004273
:1006280021F0004110EBD37021FA04F642EB0601E9
:100638005EEA430E08BF20EAD37070BDC4F10C0413
:10064800C4F1200500FA04F320FA05F001FA04F2D7
:1006580040EA020001F0004110EBD37041F10001C3
:100668005EEA430E08BF20EAD37070BDC4F12005CE
:1006780000FA05F24EEA020E20FA04F301FA05F236
:1006880043EA020321FA04F001F0004121FA04F2DE
:1006980020EA020000EBD3705EEA430E08BF20EAAE
:1006A800D37070BD94F0000F0FD101F000464000E8
:1006B80041EB010111F4801F08BF013CF7D041EA6A
:1006C800060195F0000F18BF704703F0004652006E
:1006D80043EB030313F4801F08BF013DF7D043EA3F
:1006E8000603704794EA0C0F0CEA135518BF95EAF5
:1006F8000C0F0CD050EA410618BF52EA4306D1D17C
:1007080081EA030101F000414FF0000070BD50EA9A
:10071800410606BF1046194652EA430619D094EA24
:100728000C0F02D150EA013613D195EA0C0F05D10E
:1007380052EA03361CBF104619460AD181EA030162
:1007480001F0004141F0FE4141F470014FF000001A
:1007580070BD41F0FE4141F4780170BD70B54FF0B5
:10076800FF0C4CF4E06C1CEA11541DBF1CEA135535
:1007780094EA0C0F95EA0C0F00F0A7F8A4EB050417
:1007880081EA030E52EA03354FEA013100F088800E
:100798004FEA03334FF0805545EA131343EA1263D7
:1007A8004FEA022245EA111545EA10654FEA00268C
:1007B8000EF000419D4208BF964244F1FD0404F545
:1007C800407402D25B084FEA3202B61A65EB0305A1
:1007D8005B084FEA32024FF480104FF4002CB6EB5E
:1007E800020E75EB030E22BFB61A754640EA0C00DE
:1007F8005B084FEA3202B6EB020E75EB030E22BF1E
:10080800B61A754640EA5C005B084FEA3202B6EB5E
:10081800020E75EB030E22BFB61A754640EA9C001D
:100828005B084FEA3202B6EB020E75EB030E22BFED
:10083800B61A754640EADC0055EA060E18D04FEAAB
:10084800051545EA16754FEA06164FEAC30343EA4B
:1008580052734FEAC2025FEA1C1CC0D111F4801F18
:100868000BD141EA00014FF000004FF0004CB6E711
:1008780011F4801F04BF01430020B4F1FD0C88BFB0
:10088800BCF5E06F3FF6AFAEB5EB030C04BFB6EBBB
:10089800020C5FEA500C50F1000041EB045170BDAE
:1008A8000EF0004E4EEA113114EB5C04C2BFD4EBDB
:1008B8000C0541EA045170BD41F480114FF0000E5F
:1008C800013C90E645EA060E8DE60CEA135594EADB
:1008D8000C0F08BF95EA0C0F3FF43BAF94EA0C0FDE
:1008E8000AD150EA01347FF434AF95EA0C0F7FF453
:1008F80025AF104619462CE795EA0C0F06D152EAA7
:1009080003353FF4FDAE1046194622E750EA41068A
:1009180018BF52EA43067FF4C5AE50EA41047FF49B
:100928000DAF52EA43057FF4EBAE12E74FF0FF3C00
:1009380006E000BF4FF0010C02E000BF4FF0010CD1
:100948004DF804CD4FEA410C7FEA6C5C4FEA430C4A
:1009580018BF7FEA6C5C1BD001B050EA410C0CBF99
:1009680052EA430C91EA030F02BF90EA020F0020FB
:10097800704710F1000F91EA030F58BF994208BF62
:1009880090422CBFD8176FEAE37040F0010070471F
:100998004FEA410C7FEA6C5C02D150EA013C07D176
:1009A8004FEA430C7FEA6C5CD6D152EA033CD3D0C1
:1009B8005DF8040B704700BF8446104662468C46BB
:1009C8001946634600E000BF01B5FFF7B7FF0028EE
:1009D80048BF10F1000F01BD4DF808EDFFF7F4FF17
:1009E8000CBF012000205DF808FB00BF4DF808EDA2
:1009F800FFF7EAFF34BF012000205DF808FB00BFC5
:100A08004DF808EDFFF7E0FF94BF012000205DF8E6
:100A180008FB00BF4DF808EDFFF7CEFF94BF01209B
:100A280000205DF808FB00BF4DF808EDFFF7C4FF94
:100A380034BF012000205DF808FB00BF4FEA410CDD
:100A48007FEA6C5C02D150EA013C0AD14FEA430CC0
:100A58007FEA6C5C02D152EA033C02D14FF00000FD
:100A680070474FF0010070474FEA410212F500123B
:100A780015D211D56FF47873B3EB625212D94FEADD
:100A8800C12343F0004343EA505311F0004F23FAC7
:100A980002F018BF404270474FF00000704750EA1C
:100AA800013005D111F0004008BF6FF000407047D9
:100AB8004FF00000704700BF4FEA4102B2F1E04337
:100AC80024BFB3F5001CDCF1FE5C0DD901F0004C2D
:100AD8004FEAC0024CEA5070B2F1004F40EB83007D
:100AE80008BF20F00100704711F0804F21D113F1A9
:100AF8003872BCBF01F00040704741F480114FEAE2
:100B08005252C2F11802C2F1200C10FA0CF320FA6A
:100B180002F018BF40F001004FEAC1234FEAD32387
:100B280003FA0CFC40EA0C0023FA02F34FEA4303F1
:100B3800CCE77FEA625307D150EA01331EBF4FF07A
:100B4800FE4040F44000704701F0004040F0FE4095
:100B580040F40000704700BF53B94AB9002908BFE4
:100B680000281CBF4FF0FF314FF0FF3000F00CB8E9
:100B7800ADF1080C6DE904CE03F0D2FDDDF804E018
:100B8800DDE9022304B07047704700BF10B5054C7B
:100B9800237833B9044B13B10448AFF30080012321
:100BA800237010BDA400002000000000284A00089F
:100BB80008B5034B1BB103490348AFF3008008BDD8
:100BC80000000000A8000020284A0008F8B51C48CA
:100BD8001C4F1D4D2DED028B06224FF4E13103F021
:100BE800FFF8DFED1A8A9FED1A8A052457F8046B7F
:100BF8000121304603F00CFA0021304603F072FA66
:100C08002868B0EE680A00F0A7FB55F8040BB0EEB0
:100C1800480A00F019FC013CE8D1094806224FF4C3
:100C2800165103F0DDF80B49054803F06BF9BDECEC
:100C3800028B09490248BDE8F84003F063B900BFD8
:100C4800240500208C4A0008040000200000FA4413
:100C580000007A44404A00085B4A00082DE9F04742
:100C68000F4EDFF84080DFF8409000244FF47A7A86
:100C780056F8045B98F80030284613B159F82470E8
:100C880037B900F0E9FB0134052CF1D1BDE8F08754
:100C980000F048FB0AFB0701284600F023FBF2E7B7
:100CA8000400002000000020C000002038B5054DD9
:100CB800002455F8040B013400F036FB052CF8D15C
:100CC80038BD00BF040000207FB501240526042597
:100CD8002146CDE901640095C523C422164800F0D9
:100CE80079FB2146CDE901640095C823C722134842
:100CF80000F070FB2146CDE901640095CF23CE2298
:100D08000F4800F067FB2146CDE9016400954623B2
:100D180045220C4800F05EFBCDE901640095CD2327
:100D2800CC222146084800F055FB084804B0BDE82D
:100D3800704000F0C5BB00BF28020020D40100208D
:100D4800800100202C010020D8000020D4000020C1
:100D580010B5334802F0C0FE00B910BD304803F0AA
:100D680085F83049C4B22E4803F0B2F82C48214621
:100D780003F0CAF8302C13D0A4F14103162B45D840
:100D8800162B43D8DFE803F014171B1F23272B2F3C
:100D9800333742424242424242423B4242423F0091
:100DA800214B0022C3E90022C3E902221A61D0E7DD
:100DB8001D4B0122FAE71C4B4FF0FF32F6E71A4BA6
:100DC8000122DA60C5E7184B4FF0FF32F9E7164BFE
:100DD80001229A60BDE7144B4FF0FF32F9E7124B3E
:100DE80001225A60B5E7104B4FF0FF32F9E70E4B7E
:100DF80001221A60ADE70C4B4FF0FF32F9E70B4BBD
:100E080000221A70A5E7094B0122FAE708490448AD
:100E180003F05EF82146024803F076F899E700BF30
:100E2800240500206B4A0008C000002000000020B4
:100E3800764A000808B5FFF78BFFFFF70FFFBDE8FC
:100E48000840FFF733BF7047D0ED087A67EEA77AFE
:100E58002DE9F047D0E90667044617EE900AFFF738
:100E6800FBFA8046A06A8946FFF7F6FA02460B4667
:100E7800FFF794F902460B4640464946FFF76EFCD9
:100E8800BD1BFFF7F1FD002D08D1012821DC00234F
:100E9800A560236265642846BDE8F087636C10DDB1
:100EA800002B06DDA84201DA237993B94042606439
:100EB8000FE00ED0A8420CDA227952B15B4263648B
:100EC80007E0002B2ADDF71B8742EFDD2379002B93
:100ED800ECD1D4F844A0BAF1000F27D1002DD4EDFD
:100EE800127AD4BF00250125C4ED137A2571BCEE12
:100EF800E77ADFED276A84ED027A17EE100A86EEAC
:100F0800A77A0AF101036364237984ED087A002B38
:100F1800C2D1B1EE477A84ED087ABDE7D9D0F61B85
:100F28008642D6DD2279002AD3D1C7E7E06CFFF7E5
:100F380093FA02460B4606460F46FFF72FF98046FE
:100F480050468946FFF776FA124B0022FFF7DCFA83
:100F5800114B0022FFF722F902460B46404649464C
:100F6800FFF7FCFB02460B4630463946FFF714F9FB
:100F7800FFF7A2FDD4ED147A07EE100AB4EEE77A73
:100F8800F1EE10FA58BFF0EE477AC4ED137AAEE7E7
:100F980000247449000010400000F03F037B082B38
:100FA8001BD8DFE803F005080B0E111A141A1700F6
:100FB8000368DB69184703681B6AFBE703685B6A19
:100FC800F8E703689B6AF5E70368DB6AF2E70368FA
:100FD8001B6BEFE703685B6BECE77047017903680D
:100FE80010B54900044601F0FE015B699847227973
:100FF8002368002A5B690CBF01210321204698471A
:101008000B4B0C490C4A1B68B3FBF2F3626B486844
:1010180053434A68121A9342FBDC2179236849003A
:1010280020465B69BDE8104001F0FE01184700BF8B
:101038004C000020001000E040420F00036801F05F
:10104800030102295B6906D0032906D0012914BFD0
:101058000221032118470121FCE70021FAE70323B5
:1010680091FBF3F303EB4303C91A0129024606D0A7
:10107800022904D031B903685B6904211847136851
:101088005B69FBE77047036801F0030102295B69AC
:1010980006D0032906D0012914BF052106211847C7
:1010A8000A21FCE70921FAE7062391FBF3F202FB88
:1010B800131105291CD8DFE801F003070B0F1317DC
:1010C80003685B6904211847036805215B69FAE72F
:1010D800036801215B69F6E7036803215B69F2E7AE
:1010E800036802215B69EEE7036806215B69EAE7AA
:1010F8007047036801F0070101395B69062905D8C3
:10110800DFE801F006080A0C0E101200012118474A
:101118000521FCE70421FAE70621F8E70221F6E7B2
:101128000A21F4E70821F2E70921F0E7F8B5037B83
:10113800033B0F46052B04D8DFE803F01719031704
:101148000319022600F10C04002547FA05F361791A
:10115800607803F001035940013502F0C3FFEBB298
:101168009E4204F10104F0D8F8BD0326EAE70426FC
:10117800E8E710B55421044601F0C3FB204610BD32
:1011880010B5037B044693B1036800215B69984757
:1011980094F83900FF280AD0012102F039FF94F8A9
:1011A800381094F83900BDE8104002F09BBF10BD1C
:1011B80010B5037B044663B3407B012102F028FF8E
:1011C800A07B012102F024FF237B033B052B0CD8D5
:1011D800DFE803F01C030B1C0B03E07B012102F08A
:1011E80017FF207C012102F013FF94F83900FF2833
:1011F8000FD0012102F00CFF94F8381094F8390050
:1012080081F00101BDE8104002F06CBFE07B0121D4
:10121800E9E710BD0000000010B5B5EEC00AF1EE18
:1012280010FA90ED0A7A2DED028BB0EE408A48BF95
:10123800B1EE408AB4EE487AF1EE10FA044633D0A3
:10124800C7EE086AD0ED117AF8EEE77A67EEA67A6B
:10125800FDEEE77AC0ED117A18EE100AFFF7FCF8F8
:1012680002460B4600204FF08041FFF777FA41EC29
:10127800100B03F029F90EA3D3E9002351EC100B4E
:10128800FFF742F90CA3D3E90023FFF73DF9FFF775
:1012980013FC84ED0A8ABDEC028B2368A0641B69E9
:1012A8002046BDE810401847BDEC028B10BD00BFBA
:1012B8006F1283C0CAA1E53F0000000080842E4160
:1012C800D0ED087AF5EEC07AF1EE10FACCBFC36B18
:1012D800036C1847C2698A4203D00368C1611B695D
:1012E8001847704783691944FFF7F4BF38B5836816
:1012F80004460BB9002038BD02F02EFF236BA2680C
:10130800C31A93420546F5D32379A16943B1013144
:101318002368A16120469B69984725630120EAE775
:101328000139F5E78069704710B50446FFF7DEFF1D
:1013380018B1236820461B699847D4ED087AF5EE62
:10134800407AF1EE10FA05D1D4E90630C01A18BF78
:10135800012010BD0120FCE7B5EEC00AF1EE10FA3D
:10136800D0ED097A48BFB1EE400AF4EE407AF1EECA
:1013780010FAD0B504462AD09FED157A436C80ED5B
:10138800090AC7EE007A002BC0ED147A1FDDD0EDF4
:10139800087A67EEA77A17EE900AFFF75DF8064617
:1013A800A06A0F46FFF758F802460B46FEF7F6FE0E
:1013B8000B46024639463046FFF7D0F9FFF754FB93
:1013C800236860641B692046BDE8D0401847D0BD3B
:1013D8000024744970B51B4E83739DF81030066065
:1013E800C37301269DF814309DF818500173427399
:1013F80000214FF07E520374466300234FF47F466A
:10140800C0E9061104468160036243628362C262D6
:101418000163068741648364C36402650171417492
:10142800418201750DB1FFF7C3FE2046B7EE000AF1
:10143800FFF7F2FE2046B7EE000AFFF78DFF2046C1
:1014480070BD00BFA84A0008B5EE400AF1EE10FAD8
:1014580001D0FFF7E1BE7047D0B52DED028B90EDBE
:10146800088AB5EE408AF1EE10FA044624D068EEF8
:10147800087A17EE900AFEF7EFFF0646A06A0F46B5
:10148800FEF7EAFF02460B46FEF788FE02460B46C9
:1014980030463946FFF762F9FFF7E6FAB5EEC08A3B
:1014A800BDEC028BF1EE10FACCBF411CC1432046C3
:1014B800BDE8D040FFF716BFBDEC028BD0BD0000E1
:1014C800084A13780B2B09D8591C1170064A037067
:1014D80002EBC30340F2DC525A607047FF230370EB
:1014E800704700BF7C0200203003002001490248F9
:1014F80001F0B6B90014004080020020014801F054
:10150800ABB800BF800200207047000038B50E4B12
:101518001A784FF47A73B3FBF2F30C4A0546106855
:10152800B0FBF3F000F0A6F8044658B90F2D09D81F
:10153800024629464FF0FF3000F04AF8044B204697
:101548001D6038BD0120FCE7180000204C00002079
:101558001C00002008B50B4B1A6842F400721A6090
:101568001A6842F480621A601A6842F480721A603B
:10157800032000F01BF80020FFF7C8FFFFF7C4FFA7
:10158800002008BD003C0240034A044B11681B7848
:101598000B441360704700BF900300201800002020
:1015A800014B1868704700BF900300200749CA68BC
:1015B80022F4E0620302120403F4E063120C134302
:1015C80043F0BF6343F40033CB60704700ED00E0A5
:1015D800164B30B5DC68C4F30224C4F10703251D9B
:1015E800042B28BF0423062D4FF0FF358CBF033C86
:1015F800002405FA03F321EA0303A54022EA0502C1
:10160800A340002843EA0203ACBF00F16040084A47
:101618004FEA0313B8BF00F00F00DBB2AABF00F512
:101628006140135480F8003330BD00BF00ED00E086
:1016380014ED00E0002807DB044A4109012300F00B
:101648001F00834042F82130704700BF00E100E0EE
:1016580000280CDB4309064900F01F002033012253
:10166800824041F82320BFF34F8FBFF36F8F70473D
:1016780000E100E00138B0F1807F0BD24FF0E023A9
:10168800054A5861F02182F823100020072298614A
:101698001A6170470120704700ED00E0002808DB60
:1016A8004309044900F01F0001226033824041F8D9
:1016B8002320704700E100E0704708B5FFF7FCFF02
:1016C80008BD704710B5044650B1437903F0FF02D6
:1016D80013B90271FFF7F5FF01236371002010BDF4
:1016E8000120FCE710B5044640B10223037101F064
:1016F800B5F9002020616071207110BD0120FCE760
:1017080010B5012358B1046801F01001226803FAEA
:1017180001F122EA010222600371002010BD18467F
:10172800FCE770B50446866DFFF73AFF94F835304C
:10173800022B054606D0802363650120002384F828
:10174800343070BD23681A6822F016021A605A698C
:1017580022F080025A61226C0AB9A26C1AB11A6886
:1017680022F008021A601A6822F001021A6023683F
:10177800186810F0010007D1E26D3F239340B36071
:10178800012384F83530D9E7FFF70AFF401B052805
:10179800EDD920230320636584F83500CEE790F85F
:1017A8003530022B03D0802343650120704702683F
:1017B800052380F83530136823F0010313600020F7
:1017C80070470000044A5169014208B502D05061CF
:1017D80001F028FA08BD00BF003C01402DE9F341A3
:1017E800044640B30368DE0710D423689D075BD422
:1017F8002368190700F19D8023685A0700F1BD800E
:10180800A369002B40F0248100202CE08D4B9A68BE
:1018180002F00C02042A07D09A6802F00C02082A87
:101828000BD15B68590208D5864B1B689A03DCD537
:101838006368002BD9D1012015E06368814DB3F5A9
:10184800803F13D12B6843F480332B60FFF7A8FE49
:101858007C4E054633689B03C7D4FFF7A1FE401BA7
:101868006428F7D9032002B0BDE8F081B3F5A02FB2
:1018780004D12B6843F480232B60E3E72A6822F421
:1018880080322A602A6822F480222A60002BDDD167
:10189800FFF786FE06462B689F03A6D5FFF780FE56
:1018A800801B6428F7D9DDE7664B9A6812F00C0FA5
:1018B80007D09A6802F00C02082A11D15B685D0211
:1018C8000ED4604A1368990702D5E368012BB2D198
:1018D8001368216923F0F80343EAC103136087E71B
:1018E800E268594BB2B101221A60FFF759FE554D13
:1018F80006462B689B0707D52B68226923F0F80357
:1019080043EAC2032B6073E7FFF74AFE801B0228F5
:10191800EFD9A7E71A60FFF743FE4A4E054633683A
:101928009F077FF565AFFFF73BFE401B0228F6D9FE
:1019380098E76269444B82B10122C3F8802EFFF711
:101948002FFE404E0546736F9B073FF555AFFFF7D7
:1019580027FE401B0228F6D984E7C3F8802EFFF73C
:101968001FFE384E0546736F9F077FF545AFFFF79B
:1019780017FE401B0228F6D974E7324B1A6C12F096
:10198800805228D101921A6C42F080521A641B6C62
:1019980003F080530193019B01272C4D2B68D80538
:1019A8001BD5A368274D012B27D12B6F43F00103CB
:1019B8002B67FFF7F5FD234E054641F28838336F54
:1019C8009A0739D5002F3FF41BAF1E4A136C23F03A
:1019D8008053136414E70027DFE72B6843F4807310
:1019E8002B60FFF7DDFD06462B68D905D9D4FFF734
:1019F800D7FD801B0228F7D934E7052B04D12B6FBC
:101A080043F004032B67D0E72A6F22F001022A670C
:101A18002A6F22F004022A67002BCAD1FFF7C0FD03
:101A280041F2883806462B6F9B07CBD5FFF7B8FDE8
:101A3800801B4045F7D915E7FFF7B2FD401B40452D
:101A4800BDD90FE70038024000004742007000404F
:101A5800374DAA6802F00C02082A3ED0022B354BFB
:101A68004FF000021A662BD1FFF79AFD06462B6845
:101A780099011FD4D4E907321343626A43EA8213F7
:101A8800E26A43EA0263A26A5208013A43EA02435D
:101A98006B60284B264D01221A66FFF781FD04462C
:101AA8002B689A013FF5B0AEFFF77AFD001B0228BC
:101AB800F6D9D7E6FFF774FD801B0228D7D9D1E6FF
:101AC800FFF76EFD04462B689B017FF59DAEFFF77F
:101AD80067FD001B0228F6D9C4E6012B3FF4ABAE24
:101AE8006B68E26903F4800191427FF4A4AE216A35
:101AF80003F03F028A427FF49EAE616A47F6C072E5
:101B08001A40B2EB811F7FF496AEA26A520803F422
:101B18004031013AB1EB024F7FF48DAEE26A03F037
:101B28007063B3EB026F14BF012000209BE600BF77
:101B38000038024000004742134908B58B6803F09B
:101B48000C03042B1CD0082B1CD14A684B6849682D
:101B580013F4800314BF0D480D48C1F3881118BF52
:101B6800002302F03F02A1FB0001FEF7F5FF064B40
:101B78005B68C3F3014301335B00B0FBF3F008BDBE
:101B88000248FCE70248FAE70038024000127A00EF
:101B98000024F4002DE9F0410D46044610B9012057
:101BA800BDE8F081434B1A6802F007028A4228D345
:101BB80021688F072DD4C80740D43E4B1A6802F01D
:101BC8000702AA4265D8226851076BD4130707D5C4
:101BD800394A2169936823F4604343EAC103936057
:101BE800FFF7AAFF344B354A9B68C3F30313D35C52
:101BF800D840334B1860334B1868FFF787FC002038
:101C0800CEE7CAB21A701B6803F007038B42C6D12D
:101C1800CEE7294B11F0040F1EBF9A6842F4E05238
:101C28009A600E0742BF9A6842F460429A609A68C6
:101C3800A06822F0F00202439A60BCE762681E4B7B
:101C4800012A1CD11B6813F4003FA8D01A4EB368B0
:101C580023F003031343B360FFF7A2FC41F2883873
:101C68000746B368626803F00C03B3EB820FA4D095
:101C7800FFF796FCC01B4045F3D9032090E7911E5F
:101C880001291B6802D813F0007FDEE713F0020F6A
:101C9800DBE7EAB21A701B6803F00703AB427FF474
:101CA8007EAF90E70449E0688B6823F4E053034370
:101CB8008B608BE7003C024000380240284B00084C
:101CC8004C0000201C000020044B054A9B68C3F30D
:101CD8008223D35C034A1068D8407047003802401A
:101CE800204B00084C000020044B054A9B68C3F3B6
:101CF8004233D35C034A1068D8407047003802402A
:101D0800204B00084C00002070477047036870B5EE
:101D1800DD681E69B10704460DD5AA070BD56FF01B
:101D280002021A61012202779B699B0769D000F0C1
:101D3800E4FD00232377710710D56A070ED52368C1
:101D48006FF004021A61022222779B6913F4407F24
:101D580020465CD000F0D1FD0023237733070FD550
:101D680028070DD523686FF008021A61042222772C
:101D7800DB699907204650D000F0BFFD0023237788
:101D8800F20610D5EB060ED523686FF010021A6123
:101D980008222277DB6913F4407F204643D000F005
:101DA800ACFD00232377F00708D5E90706D523689B
:101DB8006FF001021A61204600F07CFD320608D55A
:101DC8002B0606D523686FF080021A61204600F0C2
:101DD800B6F8700608D5690606D523686FF0400284
:101DE8001A612046FFF791FFB20622D5AB0620D52F
:101DF80023686FF0200220461A61BDE8704000F0A9
:101E08009DB800F078FD2046FFF77EFF91E700F0CF
:101E180072FD2046FFF778FF9EE700F06CFD204634
:101E2800FFF772FFAAE700F066FD2046FFF76CFF98
:101E3800B7E770BD294A0368904212D0B0F1804FCD
:101E48000FD0A2F57C4290420BD002F580629042FE
:101E580007D002F58062904203D002F578429042A2
:101E680008D14A6823F070031343CA6823F4407307
:101E7800134316E01A4A9042F7D002F58062904266
:101E8800F3D002F580629042EFD0A2F598329042EA
:101E9800EBD002F580629042E7D002F58062904272
:101EA800E3D04A6923F08003134303608B68C3625D
:101EB8000B688362094B984203D003F5806398420C
:101EC80001D10B690363012343610369DB0742BF47
:101ED800036923F001030361704700BF000001405C
:101EE8000040014010B5044630B390F83D3003F08F
:101EF800FF021BB980F83C2001F0C6FA02232068D3
:101F080084F83D30211DFFF795FF012384F8463002
:101F1800002084F83E3084F83F3084F8403084F85C
:101F2800413084F8423084F8433084F8443084F8EF
:101F3800453084F83D3010BD0120FCE770477047FC
:101F4800026802F10C0353E8003F23F490730C324B
:101F580042E8003102680029F2D102F1140353E883
:101F6800003F23F0010302F1140C4CE80031002972
:101F7800F3D1036B012B0BD102F10C0353E8003FA3
:101F880023F0100302F10C0C4CE800310029F3D1C6
:101F9800202380F842300023036370470268C16839
:101FA80038B5136923F440530B431361054683681E
:101FB8000069D168034368690343E86921F416415D
:101FC80021F00C0103430B43D3605369A96923F43F
:101FD80040730B4353611F4B9A4203D003F5806350
:101FE8009A4224D1FFF780FEEA691921B2F5004F21
:101FF800D5E90043A0FB01011CD1DA184FF0000518
:1020080045EB0503FEF7A8FD6422B0FBF2F102FBE5
:102018001103DB003233B3FBF2F303F007025B007A
:1020280002EB011203F4F8731344A36038BDFFF701
:102038004BFED9E79A009B0FFEF78EFD6422B0FB9A
:10204800F2F102FB11031B013233B3FBF2F303EB92
:102058000113EAE700100140704710B5044648B381
:1020680090F8413003F0FF021BB980F84020FFF7D9
:10207800F3FF2268242384F84130D36823F4005303
:10208800D3602046FFF78AFF23681A6922F490423A
:102098001A615A6922F02A025A61DA6842F4005237
:1020A800DA6000202023606484F8413084F84230EC
:1020B800606310BD0120FCE710B5044668B390F8D2
:1020C800413003F0FF021BB980F84020FFF7C4FF3E
:1020D8002268242384F84130D36823F40053D36062
:1020E8002046FFF75BFF23681A6922F490421A61C1
:1020F8005A6922F022025A615A6942F008025A616A
:10210800DA6842F40052DA6000202023606484F820
:10211800413084F84230606310BD0120FCE790F83C
:102128004130202B10D189B182B1C28401628284EE
:10213800016800232122436480F84120CA6842F0E4
:102148008002CA6018467047022070470120704715
:1021580008B5806B0023C385C38401F0AFFB08BDBD
:10216800704790F84230222B07B542D18168026847
:10217800836AB1F5805F3FD1016900293FD1526878
:10218800C2F3080223F8022B8362C38D013B9BB282
:10219800C385002B2DD10268D16821F02001D160C0
:1021A800D16821F48071D160516921F00101516138
:1021B800202280F842204363026B012A026828D15A
:1021C800036302F10C0353E8003F23F0100302F10C
:1021D8000C0C4CE800310029F3D11368DB0605D557
:1021E80001911368019353680193019B818DFFF757
:1021F800B7FF03B05DF804FB39B9016929B9526822
:10220800D2B21A70836A0133BEE7526802F07F02C5
:10221800F7E701F04DFBECE703681A6873B516079A
:10222800D9685D69044608D1960668D58D0666D5D5
:1022380002B0BDE87040FFF794BF05F0010001F45B
:10224800907505435BD0D60705D5CD0542BF636CB5
:1022580043F001036364530704D518B1636C43F07A
:1022680002036364960704D518B1636C43F0040352
:102278006364150707D501F0200303431EBF636C91
:1022880043F008036364636C002B32D0920604D5D4
:102298008B0602D52046FFF764FF26687369626CD7
:1022A80003F0400302F0080253EA0205204622D058
:1022B800FFF746FE73695E0618D5226802F114031B
:1022C80053E8003F23F04003143242E8003100296C
:1022D800F3D1E06B50B1744B0365FFF760FA40B17E
:1022E800E06B036D02B0BDE870401847204601F06E
:1022F800E5FA02B070BD01F0E1FA6564F9E7206B18
:10230800012840F09580D50640F19280C80640F13A
:102318008F80002201921A6801925A680192019AEC
:102328005A6952064ED5E16B0A68526892B2002A81
:10233800DFD0A08D9042DCD9E285CA69B2F5807FF2
:1023480036D003F10C0252E8002F22F4807203F118
:102358000C0040E800210029F3D103F1140252E8EF
:10236800002F22F0010203F1140040E800210029A7
:10237800F3D103F1140252E8002F22F0400203F1D6
:10238800140040E800210029F3D1202284F84220DB
:10239800216303F10C0252E8002F22F0100203F12E
:1023A8000C0040E800210029F3D1E06BFFF7B9F9F0
:1023B80002236363E38DA18DC91A89B22046FFF712
:1023C800CFFE96E7E28DE18D89B292B2002990D0D6
:1023D800A18D891A89B200298BD003F10C0252E829
:1023E800002F22F4907203F10C0545E80020002824
:1023F800F3D103F1140252E8002F22F0010203F195
:10240800140545E800200028F3D1202284F8422052
:10241800206303F10C0252E8002F22F0100203F1AE
:102428000C0545E800200028F3D102236363C5E7C3
:10243800160628D50D0626D594F84120212A7FF4C2
:1024480058AFA168226AB1F5805F17D12169A9B98F
:1024580032F8021BC1F3080159602262E28C013A8A
:1024680092B2E284002A7FF444AFDA6822F0800254
:10247800DA60DA6842F04002DA603AE7511C216219
:1024880012785A60EAE750067FF533AF4A067FF5BF
:1024980030AFDA6822F04002DA60202384F8413055
:1024A800204601F008FA24E75921000890F8403046
:1024B800012B11D00268242380F84130D36823F01F
:1024C8000C0343F00803D360202380F84130002335
:1024D80080F84030184670470220704790F8403026
:1024E800012B11D00268242380F84130D36823F0EF
:1024F8000C0343F00403D360202380F84130002309
:1025080080F84030184670470220704790F8412004
:1025180090F8420010437047C28500238285026903
:102528004364222380F84230816203681AB1DA6872
:1025380042F48072DA605A6942F001025A61DA683C
:1025480042F02002DA600020704770B590F84260CF
:10255800202E07D141B13AB100240463FFF7DCFF14
:10256800204670BD0220FCE70120FAE7836810B519
:1025780004462BB10322014698470023C4E90233DD
:1025880010BD836810B5044613B10322014698476D
:10259800204610BD294A9042034633D0B0F1804FFF
:1025A80032D0A2F57C42904230D002F5806290424F
:1025B8002ED002F5806290422CD002F580629042C3
:1025C8002AD002F58062904228D002F570429042EB
:1025D80026D04FF6FF701A4A934223D0194A9342E5
:1025E80022D0194A934221D0184A934220D0184A3F
:1025F80093421FD0174A93421ED04FF6FF7398425A
:102608001BD1FEE70020E6E70120E7E70220E8E724
:102618000320E9E70420EAE70520EBE70620ECE7DA
:102628000720704708207047092070470A20704724
:102638000B2070470C2070470D20704700000140A8
:10264800004001400044014000480140001800409B
:10265800001C004000200040014670B5044651F8B7
:10266800100FFFF797FF0546084600F0B9FD094A25
:10267800002342F8253004F16006E36004F1B00558
:10268800B54204D0103D2846FFF77BFFF8E7204607
:1026980070BD00BF94030020F8B504460846FFF754
:1026A80079FF236903B1FEE71B4DA36404F10C0213
:1026B80045F8202004F110060E22C4E90C33C4E9C1
:1026C8000E33C4E91033C4E91623216184F82C3091
:1026D80084F84C3084F84D30E460304600F088FCD3
:1026E80004F1600504F1B00728461035FFF73EFFF6
:1026F800BD42F9D10023C4E900334FF6FF72C4E9A3
:102708000632C4E90833A36063618023A3623046BC
:10271800BDE8F840FFF7E6BB9403002010B5074C6E
:10272800206810B10430FFF7F1FA606A20B1BDE803
:1027380010400430FFF7EABA10BD00BF9403002030
:10274800034B186810B10430FFF7E0BA704700BFB8
:1027580094030020034B586810B10430FFF7D6BA31
:10276800704700BF94030020034B986810B10430F1
:10277800FFF7CCBA704700BF94030020034BD8681A
:1027880010B10430FFF7C2BA704700BF94030020AD
:10279800034B186910B10430FFF7B8BA704700BF8F
:1027A80094030020034B586910B10430FFF7AEBA08
:1027B800704700BF94030020034B986910B10430A0
:1027C800FFF7A4BA704700BF9403002010B5074C68
:1027D800E06910B10430FFF799FA206B20B1BDE829
:1027E80010400430FFF792BA10BD00BF94030020D8
:1027F800034BD86910B10430FFF788BA704700BF9F
:1028080094030020034B186A10B10430FFF77EBA16
:10281800704700BF94030020034B986A10B104303E
:10282800FFF774BA704700BF94030020034BD86ABF
:1028380010B10430FFF76ABA704700BF9403002054
:10284800034B586B10B10430FFF760BA704700BFF4
:10285800940300200022C0E90022C0E90222704748
:10286800F8B504460E4600F1600500F1B0072846A9
:102878001035FFF7EFFFBD42F9D100232046236151
:102888003146FFF709FF2046F8BD826810B50AB93E
:1028980002F0C2F8BDE81040C368184708B500B98F
:1028A800FEE700F0A3FB0068836E13B16030FFF70A
:1028B800ECFF08BDFFF7F2BF10B500B9FEE7037FD4
:1028C800013B072B10D8DFE803F004140F100F0F9B
:1028D8000F12012400F08AFB0068063400EB041094
:1028E80083680BB1FFF7D1FF10BD0324F2E704247E
:1028F800F0E70224EEE7FFF7DFBFFFF7DDBF01F0E7
:102908003DBC01F043BC00008AB0002308287CD8F5
:10291800DFE800F00513202D3A4754616E0001935B
:102928003B4B3C481A6B42F001021A631B6B03F0E5
:1029380001030193019B0AB070470293344B364858
:102948001A6B42F002021A631B6B03F00203029334
:10295800029BF0E703932E4B30481A6B42F00402B7
:102968001A631B6B03F004030393039BE3E70493CD
:10297800274B2B481A6B42F008021A631B6B03F0B3
:1029880008030493049BD6E70593214B25481A6B4B
:1029980042F010021A631B6B03F010030593059BAA
:1029A800C9E706931A4B20481A6B42F020021A63B3
:1029B8001B6B03F020030693069BBCE70793144B9D
:1029C8001A481A6B42F040021A631B6B03F040036B
:1029D8000793079BAFE708930D4B15481A6B42F016
:1029E80080021A631B6B03F080030893089BA2E71D
:1029F8000993074B0F481A6B42F480721A631B6BDA
:102A080003F480730993099B95E7002093E700BFBF
:102A18000038024000000240000402400008024062
:102A2800000C02400010024000140240001802404E
:102A3800001C02400020024008B5074900F09EFA39
:102A4800C0F3C430012802D0022802D0FEE70020DB
:102A580008BD1020FCE700BF245000080268094B9D
:102A68009A420DD103F5E2331A6A42F000521A6213
:102A78001A6A22F000521A621A6C22F000521A6482
:102A8800704700BF0074004010B5094986B004467D
:102A980000F052FA019048B12046FFF7CDFF0146F9
:102AA80001A8FEF72DFE01A8FEF71CFE06B010BD1A
:102AB80024500008F8B51349134F064600F03CFAB5
:102AC800FFF768FD57F82030054673B9B020FFF7C7
:102AD80016FF0C490446304600F02EFA01462046FF
:102AE800FFF7BEFE57F825301C601C6844B120462D
:102AF800FFF7B2FD2046B021BDE8F840FFF701BF5F
:102B0800F8BD00BFE84C00089403002037B5FEF775
:102B180047FD4FF0E0250446AB690093FEF740FD02
:102B2800AB6901936969844201F101014FF47A7339
:102B380008D0019A8A1A5A43B2FBF1F203FB00202B
:102B480003B030BD009A8A1A5A43B2FBF1F203FB74
:102B58000420F5E7FEF724BD704708B5FEF714FD1D
:102B6800FEF7ABFDFFF7F8FF08BD704784B0114BC7
:102B780000220192196C41F080511964196C01F01E
:102B88008051019101990292596C41F48041596434
:102B9800596C01F480410291029903921A6B42F434
:102BA80080521A631B6B03F480530393039B04B096
:102BB800704700BF003802400C4BD3F8FC20D2010C
:102BC8005EBFD3F8FC2042F08072C3F8FC20084BAB
:102BD80000225A601A6842F001021A6000BF00BF62
:102BE80000BF5868B0FA80F04009704700ED00E077
:102BF800001000E008B5FFF7B9FFFFF7DDFFFEF7AB
:102C0800A9FCFFF7B2FF00F00DFFBDE8084001483E
:102C1800FEF758BD440000200023C0E90033C0E996
:102C2800023370470023012803F101020AD114225C
:102C3800DBB25343054A181D1044816829B11A4470
:102C48001369184740081346EDE77047CC03002086
:102C58000120FEF7B7BD0220FEF7B4BD0420FEF741
:102C6800B1BD0820FEF7AEBD1020FEF7ABBD08B51C
:102C78002020FEF7A7FD4020FEF7A4FD8020FEF7E8
:102C8800A1FD4FF48070FEF79DFDBDE808404FF4AC
:102C98000070FEF797BD38B506244FF48065A8B2DA
:102CA800FEF790FD013C4FEA4505F8D138BD00001C
:102CB800344A104608B5062300F8043BFFF7ACFF7A
:102CC800072302F118001375FFF7A6FF082302F186
:102CD8002C0082F82830FFF79FFF092302F14000FB
:102CE80082F83C30FFF798FF0A2302F1540082F87B
:102CF80050301721FFF790FF02F1680082F8641046
:102D0800FFF78AFF02F17C0082F87810FFF784FF52
:102D180002F1900082F88C10FFF77EFF02F1A40008
:102D280082F8A010FFF778FF02F1B80082F8B4101B
:102D38002821FFF771FF02F1CC0082F8C810FFF7D5
:102D48006BFF02F1E00082F8DC10FFF765FF02F18B
:102D5800F40082F8F010FFF75FFF02F5847082F844
:102D68000411FFF759FF02F58E7082F81811FFF76A
:102D780053FFBDE8084002F5987082F82C11FFF760
:102D88004BBF00BFCC03002038B5054CA4F5A07597
:102D9800143C201DFFF7F5FBAC42F9D138BD00BF4C
:102DA8000C05002030B591FAA1F391FAA1F1B3FA1C
:102DB80083F3C4685B000325B1FA81F105FA03F3D4
:102DC800490024EA03038A401A43C26030BD431C09
:102DD80004D00C3151F80C3C5A1C01D1002070472A
:102DE800834201F10C01F5D101207047F8B5471C69
:102DF80006460D4600D1FEE700F00F02414BC0F336
:102E0800031053F82240FFF77FFD94FAA4F3B3FAB6
:102E180083F3876803225B0002FA03F394FAA4F2AF
:102E2800B2FA82F227EA03075200032393403B4396
:102E380005F007018360032903D8DFE801F05F612B
:102E48002C03FEE7032394FAA4F2B2FA82F206688E
:102E58005200032707FA02F226EA020694FAA4F2BD
:102E6800B2FA82F2520093400139334301290360D8
:102E780005D843682A074CBF2343A3434360C5F3DF
:102E88000112012A02D0022A18BF00222146BDE8F9
:102E9800F840FFF787BFC5F306227F2A01D1022336
:102EA800D1E7360716D5230A93FAA3F6B6FA86F6BB
:102EB800476A93FAA3F3B6004FF00F0CB3FA83F303
:102EC8000CFA06F69B0027EA060602FA03F33343D8
:102ED8004362E4E794FAA4F3B3FA83F3066A9B0027
:102EE8000F2707FA03F326EA030694FAA4F3B3FAC2
:102EF80083F39B009A4032430262D0E70023A2E7A3
:102F08000123A0E7E04A0008431C06D1704783422A
:102F180002D18968FFF76ABF0C310B685A1CF6D1D9
:102F2800FEE70B685A1C01D100207047834201D18B
:102F3800486870470C31F4E7431C01D0FFF7F1BF34
:102F4800002070474B6813B94FF0FF307047834239
:102F580001D1086870470C31F4E708B1FFF7F2BFF8
:102F68004FF0FF30704703460868421C00D1704795
:102F7800984201D1886870470C31F5E7431C01D0AD
:102F8800FFF7F1BF704703468B42084604D01BB1D8
:102F980000290CBF18460020704700001049D1F8DE
:102FA800883043F47003C1F888300E4B1A6842F039
:102FB80001021A6000229A601A6822F0847222F4D0
:102FC80080321A60084A5A601A6822F480221A600D
:102FD8004FF43F02DA604FF000638B60704700BF28
:102FE80000ED00E00038024010300024043870473B
:102FF80003686D4A93428EB02AD1002200926B4A30
:10300800516C41F001015164526C02F001020092CE
:10301800009A674A93422AD100220592634A116CAA
:1030280041F010011164126C02F010020592059A29
:10303800604A93422AD100230A935C4B5A6C42F4AB
:1030480080225A645B6C03F480230A930A9BA9E0EC
:10305800B3F1804F2AD100220192544A116C41F0F9
:1030680001011164126C02F001020192019A524AA4
:1030780093422AD1002206924C4A116C41F0200159
:103088001164126C02F020020692069A4B4A93428F
:103098002AD100230B93454B1A6C42F040021A6464
:1030A8001B6C03F040030B930B9B7BE0444A934259
:1030B8002AD1002202923D4A116C41F002011164AA
:1030C800126C02F002020292029A3E4A93422AD1FC
:1030D80000220792354A516C41F002015164526C4A
:1030E80002F002020792079A374A93422AD1002334
:1030F8000C932E4B1A6C42F080021A641B6C03F07E
:1031080080030C930C9B4DE0304A93422AD1002255
:103118000392264A116C41F004011164126C02F00A
:1031280004020392039A2A4A93422BD1002208925E
:103138001E4A516C41F480315164526C02F4803261
:103148000892089A234A93422CD100230D93174BD7
:103158001A6C42F480721A641B6C03F480730D932A
:103168000D9B1FE01C4A93427FF453AF0022049248
:103178000E4A116C41F008011164126C02F0080249
:103188000492049A154A93427FF452AF002309939C
:10319800064B5A6C42F400325A645B6C03F40033F9
:1031A8000993099B0EB070470000014000380240A7
:1031B8000010004000480140001400400018004082
:1031C8000004004000040140001C004000080040CA
:1031D8000040014000200040000C00400044014035
:1031E80003683B4A934215D13A494A6C22F00102DE
:1031F8004A64394A934215D136490A6C22F01002C2
:103208000A64364A934215D102F57042536C23F48E
:1032180080235BE0B3F1804F16D12E490A6C22F06F
:1032280001020A642E4A934216D12A490A6C22F0F6
:1032380020020A642B4A934216D102F50832136C15
:1032480023F0400313647047274A934215D121495C
:103258000A6C22F002020A64244A934215D11D49DD
:103268004A6C22F002024A64214A934215D102F5BF
:103278000732136C23F08003E4E71E4A934215D10A
:1032880014490A6C22F004020A641B4A934215D1BD
:1032980010494A6C22F480324A64184A9342D2D1C7
:1032A80002F50632136C23F48073CBE7144A934279
:1032B8009FD108490A6C22F008020A64114A934215
:1032C8009FD102F57442536C23F400335364704762
:1032D8000000014000380240001000400048014052
:1032E80000140040001800400004004000040140A1
:1032F800001C004000080040004001400020004041
:10330800000C004000440140431C3AD0294B98422D
:103318003AD018D8A3F54063984237D00BD8A3F514
:103328000063984234D003F58063984232D0B0F1FC
:10333800804F31D0FEE7204B98422FD003F58063B1
:1033480098422DD0F6E71D4B98422DD00CD8A3F506
:103358006443984226D003F56043984226D0A3F5EB
:103368006443984220D0E5E7154B98421ED003F5F8
:10337800806398421CD0A3F500639842DAD11820E4
:1033880070476FF00D0070472B2070473220704750
:103398001D2070471E2070471C207047362070473C
:1033A800372070472D2070472C2070471920704710
:1033B8001A20704700180040001000400004014027
:1033C80000440140431C3AD02B4B98423AD01CD8B9
:1033D800A3F58053984237D00BD8A3F500639842E1
:1033E80034D003F58063984232D0B0F1804F31D0A9
:1033F800FEE7224B98422FD003F5806398422DD0E8
:10340800A3F5006398422BD0F2E71D4B984229D0D0
:103418000CD8A3F58043984226D003F580639842E0
:1034280024D0A3F56443984222D0E1E7154B984293
:1034380020D003F580639842DAD11A2070476FF0E4
:103448000D0070472C207047322070471D207047B0
:103458001E2070471C207047372070472B2070476C
:1034680036207047182070471B2070472E20704761
:103478002D20704719207047001C004000140040A0
:10348800004001400044014038B5FFF7B1FD044653
:103498000068FFF739FFD4E91212FEF799F820689F
:1034A800FFF732FFFEF7C6F822681046FFF78AFFDB
:1034B80005461046FFF728FF85420BD02846D4E979
:1034C8001212FEF785F82068FFF77CFFBDE8384048
:1034D800FEF7B0B838BD00002DE9F04F89B00446BA
:1034E8008A46406D93499846129B01939146FFF78F
:1034F80023FD91498346A06DFFF71EFD8F490646BF
:10350800E06DFFF719FD8E490546206EFFF714FDA3
:103518000746BBF1000F00F00A81A26D013202D00C
:10352800002E00F00481E26D013202D0002D00F07F
:10353800FE80226E013202D0002F00F0F880314662
:103548005846FFF720FD0346206020B90146FFF7E3
:103558001AFD0346206029461846FFF714FD394630
:103568002060FFF710FD2060002800F0E080754B18
:1035780098424FD103F594335A6A42F010025A62C6
:103588005A6A22F010025A62002202925A6C42F0E1
:1035980010025A645B6C03F010030293029B25230C
:1035A800A4F864306349606DFFF7AEFC1EB1624950
:1035B800A06DFFF7A9FC2DB16049E06DFFF7A4FCF1
:1035C8004FF480752FB15E49206E45F40075FFF702
:1035D8009BFC94F865205C4B94F96400C4F80C904B
:1035E800271D43F822702368C4E9013A019B002291
:1035F800C4E904380C23C4E9063522620121FDF729
:10360800E7FF3846002E40F08D8009B0BDE8F04F46
:10361800FEF752BD4D4B984217D103F5FA331A6A9B
:1036280042F400321A621A6A22F400321A62002244
:1036380003921A6C42F400321A641B6C03F40033D0
:103648000393039B4FF49373AAE7414B984217D116
:1036580003F5F8331A6A42F480221A621A6A22F4CD
:1036680080221A62002204921A6C42F480221A64A0
:103678001B6C03F480230493049B40F227238FE7F9
:10368800344B984217D103F5F6331A6A42F40022F4
:103698001A621A6A22F400221A62002205921A6C2F
:1036A80042F400221A641B6C03F400230593059B63
:1036B8004FF44D7374E7284B984217D103F5F43350
:1036C8001A6A42F480121A621A6A22F480121A6282
:1036D800002206921A6C42F480121A641B6C03F4DE
:1036E80080130693069B40F2354359E71B4B9842DB
:1036F8007FF458AF03F592335A6A42F020025A62B7
:103708005A6A22F020025A62002207925A6C42F04A
:1037180020025A645B6C03F020030793079B40F276
:1037280047533DE709B0BDE8F04FFEF796BC09B036
:10373800BDE8F08F584C0008C84B0008804B0008C3
:10374800384B0008001001400C05002000440040E0
:1037580000480040004C0040005000400014014068
:1037680010B4019C20B101945DF8044BFFF7B4BE7E
:103778005DF8044B7047000008B5074B90F86520CA
:1037880053F82200FEF7C2FE00F02200A0F1220347
:103798005842584108BD00BF0C05002008B5074B2A
:1037A80090F8652053F82200FEF7B0FE00F02100E3
:1037B800A0F121035842584108BD00BF0C05002064
:1037C80070B50E46054610B94FF0FF3070BDFFF7D3
:1037D800D3FF04460028F7D12946012211F8663F95
:1037E800337095F86500034B53F82000FEF7ADFEE3
:1037F8002046EBE70C05002038B50D460446B8B165
:10380800FFF7BAFFA0B994F96400E564FDF720FF5B
:1038180094F86500074B04F1660153F82000012273
:10382800FEF793FE94F96400BDE83840FDF702BF47
:1038380038BD00BF0C05002038B515460446B8B1A0
:10384800016590F96400FDF703FFE36EB4F87610A4
:1038580094F8650013FA81F1064BAAB253F82000D8
:10386800FEF75DFC94F96400BDE83840FDF7E2BE60
:1038780038BD00BF0C05002048B1836D013306D167
:1038880090F86520024B53F82200FEF70FBE7047F0
:103898000C05002048B1836D013306D190F86520EE
:1038A800024B53F82200FEF719BE70470C050020A2
:1038B800836C04381847C36C0438184730B504467D
:1038C80050F804391D6815F0010585B012D00022A2
:1038D80000921A6800925B680093009BFFF74CFF08
:1038E80040BB012204F16201204605B0BDE830402A
:1038F800FEF72BBE196811F0020106D001951A686F
:1039080001925B680193019BE8E71A6812F00402D0
:1039180006D002911A6802925B680293029BDDE767
:1039280019680907DAD503921A6803925B6803934A
:10393800039BD3E705B030BD08B52520FDF7AEFEE3
:10394800024B1868BDE80840FEF766BC0C0500206D
:1039580008B52620FDF7A2FE034B586818B1BDE84C
:103968000840FEF759BC08BD0C05002008B5272003
:10397800FDF794FE034B986818B1BDE80840FEF7C0
:103988004BBC08BD0C05002008B53420FDF786FEA9
:10399800024BD868BDE80840FEF73EBC0C05002085
:1039A80008B53520FDF77AFE024B1869BDE80840D6
:1039B800FEF732BC0C05002008B54720FDF76EFE67
:1039C800024B5869BDE80840FEF726BC0C050020EC
:1039D8000A490346086810B50344EFF30882934286
:1039E80005D9074B0C221A604FF0FF3010BD054A6D
:1039F800054C121B9342F4D20B60F7E750000020ED
:103A0800A00700200000022000040000FEE70000DC
:103A1800024B16221A604FF0FF307047A0070020B3
:103A28000120704730B595B0102200210AA800F097
:103A380063FC1422002103A800F05EFC244C002241
:103A48000092236C43F080532364236C03F080536B
:103A58000093009B1F4B01921A6842F480421A603F
:103A68001B6803F480430193019B01214FF48033C9
:103A78000225CDE908134FF480030820CDE90E5341
:103A88004FF4A873CDE91003072308A812951393E0
:103A9800FDF7A4FE00B1FEE70F23CDE9033505903D
:103AA8004FF4A0524FF48053052103A8CDE9062313
:103AB800FEF770F800B1FEE70290236B43F4801321
:103AC8002363236B03F480130293029B15B030BD6C
:103AD8000038024000700040B0F80831B0F8042106
:103AE800981A00F03F007047B0F80831B0F8042188
:103AF8009BB293421ABFD0F8FC30985C4FF0FF306D
:103B0800704790F80631B0F80A01C0B2834227BF67
:103B1800C3F13F03C018C01A00F1FF30704707B562
:103B280003688DF807105B6801220DF107019847BB
:103B380003B05DF804FB13B50DF107010446FFF768
:103B48003FFE88B9B4F87430B4F87020013303F03C
:103B58003F03934208D0B4F87420A16E9DF8070083
:103B680092B28854A4F8743002B010BDB0F8762030
:103B7800816F11FA82F202F03F0210B5A0F87620A8
:103B8800B0F87610B0F8722089B28A421AD0B0F82C
:103B98007640B0F87610A4B24032121B544289B273
:103BA80004F03F0402F03F02C1F1400158BF6242F5
:103BB8008A4228BF0A4682670349FFF73DFE4FF055
:103BC800FF3010BD0020FCE7753B00082DE9F843E5
:103BD800036804469B688846164698470123237461
:103BE800D4F8EC30B4F8067101338146C7F14007C8
:103BF80009D194F8103133B1002384F8103104F15D
:103C08009400FFF739FE236820469B6898470028F0
:103C1800F9D03546BD4225D84D4523D8B4F80631EC
:103C2800D4F800015A19402A184430D82A46414687
:103C380000F0A6FB2F46B4F806311D4405F03F05F9
:103C4800A4F8065104F194052846FFF7A7FD30B9FA
:103C58001649C4F80C713A462846FFF7EDFD304680
:103C6800BDE8F8834F45236828BF4F463A4641468A
:103C78005B6820469847236820469B689847ED1B59
:103C8800B844B4F806718146C7F14007C2E7C3F1EA
:103C980040073A46414600F073FBD4F80001EA1B9E
:103CA80008EB070100F06CFBC5E700BF753B000897
:103CB800C0F8F030009BC0F8F430914208BF4FF0D4
:103CC800FF3100F11103C0E93A21C0F8FC3000F1DE
:103CD80051020023A0F80831C0E94023A0F80A31B6
:103CE80070470000F7B54FF47A7317460022C0E911
:103CF80001231C4B03604FF0FF33C0F8EC301A4B24
:103D08001A4E04469C42F06D0D4605D1B36DC4F8B9
:103D1800EC30C4F8E8000AE01549FFF70DF98542D0
:103D280015D1B36DC4F8EC30F36DC4F8E830012F49
:103D38004FF0FF3308BFC4F8EC3000932046D4E9B5
:103D48003A214FF0FF33FFF7B3FF03B0F0BD094945
:103D58002846FFF702F90649C4F8EC002846FFF7A1
:103D6800FCF8D6E7C4510008240500208850000854
:103D7800584C0008C84B0008037C70B504460D4633
:103D8800A3B1FDF70DFC0646B4F80621B4F80A31D4
:103D98009BB29A420AD0002DF8D0FDF701FC801B97
:103DA8008542F1D8B4F80A31A4F8063170BD002173
:103DB800FFF7E2BFD0F8EC30013310B504460ED15E
:103DC8000368DB68984794F8103143B9012384F8F5
:103DD800103104F19400BDE81040FFF75BBD10BD41
:103DE80002F00703023BDBB2042B73B5144680F8DC
:103DF800112198BF1B4AC0F8141198BFD25C04F077
:103E0800300388BF0022302B054607D101324FF41A
:103E1800C063082A09D0092A1BD0FEE714F0200342
:103E28001CD001324FF48063F3E70022C4F3C004CE
:103E380005F19406640330460094FFF791FC284688
:103E4800FFF7B8FF0849304602B0BDE87040FFF7F9
:103E5800D3BC4FF48052E9E71A46E7E7082AFBD0BB
:103E6800DBE700BFB45100083F3B000810B504462B
:103E7800FFF7A0FFB4F80821B4F8043192B29A42CF
:103E88001FBFD4F8FC20D05C013303F03F0314BFFC
:103E9800A4F804314FF0FF3010BD00000249034878
:103EA8000022FFF71FBF00BF0010014024050020BB
:103EB80070B505460C46084649B1FCF761F92B6810
:103EC8000246214628465B68BDE87040184770BD29
:103ED80008B5FFF7EDFF08BD03681B681847000029
:103EE80008B50249FFF7E4FF08BD00BF884A00088B
:103EF80038B50546FFF7DCFF04462846FFF7F0FF14
:103F0800204438BDFFF7F4BF38B50546FFF7E4FF96
:103F180004462846FFF7E4FF204438BD10B50446A0
:103F280000F018F9E060236820465B69984700288C
:103F380008DA00F00FF9E368C01AA3689842F2D3D0
:103F48004FF0FF3010BDF8B507460D468E180C46E9
:103F5800B44201D1601BF8BD3846FFF7DFFF431CB0
:103F6800F8D004F8010BF3E72DE9F041074688463D
:103F780016461D4673B100243846FFF7CFFF431C91
:103F880005D0404503D030550134A542F4D1204630
:103F9800BDE8F0811C46FAE708B50320FDF706FBEB
:103FA800BDE8084000F0E8B808B5AFF30080FCF7BA
:103FB8000DFEFCF73FFF00F0D1F8FAE7DFF834D048
:103FC800FEF7ECFF0C480D490D4A002302E0D458D7
:103FD800C4500433C4188C42F9D30A4A0A4C00234B
:103FE80001E013600432A242FBD300F0A3F9FFF70B
:103FF800DBFF70470000022000000020A400002022
:1040080024520008A4000020A8070020FEE70000B2
:10401800C3B24A2B2DE9F0410D462AD82C4A52F852
:10402800233000F4E0641C43621C4ED0294EC4F3D4
:10403800031704F00F0856F8273023FA08F3DB07B4
:1040480010D525492046FEF7C2FE18B32046FEF7D4
:104058001BFD56F82730012202FA08F223EA020370
:1040680046F82730052D1FD8DFE805F01F2B252738
:10407800292D00F0C002C02A27D1CF2B25D8174BF5
:1040880000F03F0200F4E06453F82220104B53F88C
:104098002230C8E712492046FEF799FE0028D8D0FA
:1040A8002046FEF707FDD4E7FEE700212046BDE8DD
:1040B800F041FEF79BBE1021F8E72021F6E7032127
:1040C800F4E70121F2E70921F0E7BDE8F08100BF3C
:1040D800885000083C06002024500008485000087A
:1040E800E84C0008C3B24A2B19D8164A52F82330B4
:1040F80000F4E0601843431C10D0C0F30313082BEE
:1041080098BF114A00F00F0098BF52F823200F4BB8
:1041180088BF002253F8203091B19361704700F0B6
:10412800C002C02AFAD1CF2BF8D8094B00F03F02C1
:1041380000F4E06053F82220024B53F82230D9E70C
:104148001B04EAE78850000820000020E04A000825
:1041580048500008FEF7FEBCFEF7D8BC08B5044B73
:104168002BB10448FFF7B8FC08B1AFF3008008BDD5
:104178000000000024050020FEF73CBD024B01466C
:10418800186800F02DB800BF54000020024B01460B
:10419800186800F003B900BF5400002070B50F4E36
:1041A8000C463168054611B900F0AEF8306021467A
:1041B800284600F0A9F8431C03D14FF0FF342046ED
:1041C80070BDC41C24F00304A042F8D0211A28466C
:1041D80000F09AF80130F2D1EFE700BF6006002046
:1041E8002DE9F843CD1C25F0030508350C2D38BF03
:1041F8000C25002D064601DBA94204D90C233360A7
:104208000020BDE8F883DFF8D48000F069F8D8F81A
:1042180000301C4644BB29463046FFF7BFFF431C0D
:10422800044658D1D8F800402746002F43D1002C27
:104238004BD023683946304604EB030900F064F894
:10424800814542D121686D1A29463046FFF7A6FFFD
:1042580001303AD023682B442360D8F800305A68DC
:1042680062BBC8F800700FE02268521B20D40B2AEA
:1042780017D96119A342256018BF5960636808BF40
:10428800C8F8001062514B60304600F02FF804F176
:104298000B00231D20F00700C21A1CBF1B1AA350D5
:1042A800AFE76268A3420CBFC8F800205A60EBE78A
:1042B80023466468AEE73C467F68B6E71A465B6803
:1042C800A342FBD100235360DEE70C233360304662
:1042D80000F00CF894E70560D6E700BF64060020FC
:1042E800014800F04BB800BFA4070020014800F0C7
:1042F80046B800BFA407002002440346934200D1F9
:10430800704703F8011BF9E738B5064D002304464A
:1043180008462B60FFF75CFB431C02D12B6803B1F6
:10432800236038BDA0070020014B1868704700BF04
:104338005400002070B50D4B0D4D5B1B9C100026E2
:10434800A64209D100F06CFB0A4D0B4B5B1B9C107D
:104358000026A64205D170BD55F8043B98470136A2
:10436800EEE755F8043B98470136F2E7005200089B
:1043780000520008005200081852000870477047A1
:104388000A44914200F1FF3300D1704710B511F88B
:10439800014B03F8014F9142F9D110BD38B50546DC
:1043A800002941D051F8043C0C1F002BB8BFE41879
:1043B800FFF796FF1D4A136833B9636014602846F7
:1043C800BDE83840FFF792BFA34208D920682118FA
:1043D8008B4201BF19685B6809182160EDE71A462E
:1043E8005B680BB1A342FAD911685018A0420BD1EF
:1043F80020680144501883421160E0D118685B6856
:10440800536008441060DAE702D90C232B60D6E722
:10441800206821188B4204BF19685B68636004BF79
:10442800091821605460CAE738BD00BF640600203F
:1044380008B5062000F02CF80120FFF7E7FA1F293D
:1044480038B505460C4604D9162303604FF0FF30F3
:1044580038BDC26B12B152F821304BB9284600F072
:1044680031F8224601462846BDE8384000F018B821
:10447800012B0AD0591C03D1162303600120E7E75A
:10448800002142F82410204698470020E0E7000069
:10449800024B01461868FFF7D2BF00BF5400002046
:1044A80038B5074D00230446084611462B60FFF730
:1044B800AFFA431C02D12B6803B1236038BD00BF9B
:1044C800A0070020FFF7ACBA38B52DED028B55ECEC
:1044D800104B00F02DF822462B4620462946B0EE18
:1044E800408AF0EE608AFCF7A9FA30B9002200236E
:1044F80020462946FCF77AFA30B9B0EE480AF0EEC1
:10450800680ABDEC028B38BDFFF70EFF00220023BE
:104518002121016010461946FCF720F941EC180BDF
:10452800B0EE480AF0EE680ABDEC028B38BD00BF59
:104538002DE9F84F774955EC104BA94300F0AE80B0
:10454800002D2A46234655DD2C1562D0C2F31302EE
:10455800E107A4F2FF3742F4801203D4520002EBC1
:10456800D3725B005200002602EBD3727F105B000F
:104578001624B4464FF400110CEB010090424FEAA8
:10458800D3754FEA430303DC00EB010C121A0E4407
:10459800013C05EB42024FEA5101EDD1A04620252E
:1045A8004FF000400AE043D0510001EBD371013DC8
:1045B8000A464FEA43034FEA500045D0624500EBF4
:1045C800080EF0DDBEF1000F0EEB00080CDBE14633
:1045D800A2EB0C019E4588BF01F1FF314900CC4692
:1045E800A3EB0E030444E0E7B8F1000FEFDB0CF196
:1045F8000109EDE725F00041214346D0002D74D193
:10460800D90A153A5B050029FAD0CE0214467DD4A2
:104618000A4600215200D502084601F10101F9D5E8
:10462800C1F1200523FA05F52A438B40241A8DE7AA
:104638009E4502D94FEA4C01B7E7BEF1000F0EEBD9
:10464800000824DB0021CBE7194312D0DFF8C8A00B
:10465800DFF8C8B0DAE90001DBE90023FBF79CFDCD
:10466800DAE9008902460B4640464946FCF7C8F994
:1046780010BB6508711001F17F5101F5001101EBC4
:10468800075345EAC67243EC102BBDE8F88FB8F122
:10469800000FD7DB0CF1010C0021A1E722462B46C5
:1046A80020462946FBF730FF22462B46FBF776FDCE
:1046B80041EC100BBDE8F88FB4F1FF3FDAE90001D7
:1046C800DBE900231ED0FBF769FDDAE90089024621
:1046D8000B4640464946FCF789F9A8B1A31C04F1EA
:1046E800020508BF01366D08C4E722462B4620465E
:1046F8002946FBF751FD02460B46FCF72FF841EC23
:10470800100BC2E70136B5E70134B2E74FF0FF30CE
:104718000A468BE70000F07FF0510008E8510008D6
:104728002DE9F047089D0F4604468C46002B48D1DA
:104738008A42164661D9B2FA82F34BB1C3F120021C
:1047480001FA03FC20FA02F29E4042EA0C0C9C405B
:104758004FEA164EB7B2BCFBFEF1220C0EFB11CC91
:1047680042EA0C4201FB07F0904209D9B21801F164
:10477800FF3C80F0EE80904240F2EB8002393244F8
:10478800121AA4B2B2FBFEF00EFB102244EA024455
:1047980000FB07F7A74209D9341900F1FF3280F06E
:1047A800DA80A74240F2D7803444023840EA014018
:1047B800E41B00211DB1DC400023C5E90043BDE82E
:1047C800F0878B4206D90DB1C5E9000100210846E2
:1047D800BDE8F087B3FA83F1002948D1BB4202D380
:1047E800824200F20781841A67EB03020120944693
:1047F800002DE4D0C5E9004CE1E7002A00F09280E2
:10480800B2FA82F3002B40F0A8808A1A4FEA164EBB
:104818001FFA86FC0121200CB2FBFEF70EFB1722C3
:1048280040EA02420CFB07F0904207D9B21807F1A0
:10483800FF3802D2904200F2E2804746121AA4B230
:10484800B2FBFEF00EFB102244EA02440CFB00FC13
:10485800A44507D9341900F1FF3202D2A44500F269
:10486800CB801046A4EB0C0440EA0740A2E7C1F154
:1048780020068B4022FA06FC4CEA030C07FA01F4E6
:1048880020FA06F3F7404FEA1C49234300FA01F8DF
:104898001FFA8CFEB7FBF9F01C0C09FB107744EAF1
:1048A800074400FB0EF7A74202FA01F20AD91CEBF3
:1048B800040400F1FF3A80F09B80A74240F2988000
:1048C80002386444E41B9FB2B4FBF9F309FB1344B8
:1048D80047EA044403FB0EFEA64509D91CEB040471
:1048E80003F1FF3780F08280A6457FD9023B6444FC
:1048F80043EA0040A4EB0E04A0FB02E7BC42734667
:10490800B94663D360D05DB1B8EB030264EB090428
:1049180004FA06F622FA01F31E43CC40C5E9006406
:1049280000214CE76208480842EAC1710B0C43EACF
:1049380000438AB242EA0342B3FBF6F1E407B44605
:104948003746B6461F23B0FBF6F0D21B41EA0041BA
:1049580061E7614614E7104628E7C3F1200120FA11
:1049680001F29E4027FA01F19F403A434FEA164E62
:104978001FFA86FCB1FBFEF70EFB1710110C41EA7B
:10498800004107FB0CF8884504FA03F43AD971187A
:1049980007F1FF3001D288451FD8A1EB0801B1FB10
:1049A800FEF808FB0CF70EFB181192B242EA01421E
:1049B800BA422FD2B21808F1FF31C6D2BA42C4D2D5
:1049C800A8F102013244C0E7F0459CD2BEEB0203D5
:1049D80067EB0C070138B94695E7A6EB0808414490
:1049E800B81EB1FBFEF808FB0CF7DCE73B467FE797
:1049F800504667E70846FBE63444023832E7023F90
:104A080032441BE7A1EB08013846B1FBFEF808FB6E
:104A18000CF7C8E7414698E708B5FFF709FD00001D
:104A2800F8B500BFF8BC08BC9E467047F8B500BF93
:084A3800F8BC08BC9E46704763
:104A4000426C7565746F6F7468207265616479205B
:104A50006F6E2053657269616C31005365747570B7
:104A600020636F6D706C6574652E005265636569B7
:104A70007665643A2000556E6B6E6F776E20636FBB
:104A80006D6D616E643A20000D0A0000C6000000E2
:104A9000C9000000020000004700000006000000FE
:104AA000000000000000000089110008B911000892
:104AB0004F0E00087B110008510E00083511000848
:104AC000A50F0008C9120008E50F000845100008EE
:104AD000671000088F100008B1100008FB100008D4
:104AE00001000000020000000400000008000000B7
:104AF00010000000200000004000000080000000C6
:104B00000001000000020000000400000008000096
:104B100000100000002000000040000000800000A5
:104B2000000000000102030400000000000000007B
:104B300001020304060708090000000000440040C9
:104B4000120700000B0000000010014012070000D7
:104B50001D00000000480040120700003300000064
:104B600000440040120700003B00000000480040E5
:104B700012070000FFFFFFFF000000000000000020
:104B80000100000000440040120700000C0000007B
:104B900000100140120700001E0000000048004005
:104BA000120700003400000000440040120700001B
:104BB0003C0000000048004012070000FFFFFFFF1C
:104BC000000000000000000001000000004C004058
:104BD000120800000300000000440040120700001B
:104BE0000A0000000010014012070000170000003A
:104BF00000100140120700001B00000000480040A8
:104C000012070000270000000014014012080000F5
:104C10002B000000004C0040120800002B01000097
:104C20000048004012070000320000000050004021
:104C30001208000036000000004400401207000087
:104C4000390000000048004012070000FFFFFFFF8E
:104C5000000000000000000000000000004C0040C8
:104C6000120800000200000000440040120700008B
:104C700009000000001001401207000016000000AB
:104C800000100140120700001A0000000048004018
:104C90001207000026000000001401401208000066
:104CA0002A000000004C0040120800002A01000009
:104CB00000480040120700002C0000000050004097
:104CC00012080000350000000044004012070000F8
:104CD000380000000048004012070000FFFFFFFFFF
:104CE0000000000000000000000000000000004084
:104CF0001281000000010000000C00401282000040
:104D0000010000000000004012010100010100004C
:104D1000000C0040120201000200000000000040F0
:104D20001281010002010000000C0040128201000B
:104D30000202000000400140128300000300000056
:104D4000000000401201020003010000000C0040BE
:104D500012020200030200000040014012030100A1
:104D60000500000000000040128100000501000065
:104D700000040140128310000600000000040040FF
:104D80001282000006010000001C00401289000091
:104D90000700000000000140128110000701000020
:104DA000000400401202010007020000000401405C
:104DB0001283100007030000002000401289000049
:104DC00008000000000001401281000009000000FE
:104DD00000000140120101000A0000000000014033
:104DE000128101000B0000000000014012010200CE
:104DF0000F000000000000401281000010000000C1
:104E000000000140120111001001000000040040E8
:104E10001282010010020000000401401203110080
:104E2000110000000000014012811100110100007A
:104E300000040040120202001102000000040140C0
:104E40001283110013000000000000401201010055
:104E50001400000000040040128200001500000051
:104E6000000400401202010016000000000800408B
:104E7000128200001700000000080040120201002A
:104E80001800000000080040128201001801000014
:104E90000044014012830000190000000008004097
:104EA00012020200190100000048014012830000B4
:104EB0001A00000000000040128101001B000000E9
:104EC00000000040120102001D000000000001402F
:104ED000128110001E0000000000014012011100AC
:104EE0001E01000000040140120311001E02000018
:104EF00000180040128900001F000000000001405F
:104F0000128111001F0100000004014012831100F2
:104F10001F020000001800401209010026000000D6
:104F2000000400401282000026010000000401403D
:104F3000128300002700000000040040120201005C
:104F400027010000000401401203010028000000B6
:104F5000000400401282010028010000000401400A
:104F60001283010029000000000400401202020028
:104F70002901000000040140120302003C0000006F
:104F800000080040128200003D00000000080040C0
:104F9000120201003E0000000008004012820100E1
:104FA0003F0000000008004012020200450000001F
:104FB0000040014012830000460000000040014014
:104FC000120301004800000000000140128110009F
:104FD0004900000000000140128100004A0000006A
:104FE00000000140120111004B00000000000140D0
:104FF000120101004C00000000000140128111006C
:105000004D00000000000140128101004E00000030
:105010000000014012010200FFFFFFFF000000003E
:105020000000000004000000007400400380000045
:10503000050000000074004003000100FFFFFFFFB7
:1050400000000000000000002C0000002D00000007
:105050002E0000002F000000300000003100000092
:105060003200000033000000340000003500000072
:105070003600000037000000380000003900000052
:105080003A0000003B00000041000000400000002A
:1050900019000000180000001700000016000000B2
:1050A000150000001300000037000000360000006B
:1050B0003500000034000000330000003200000022
:1050C00031000000300000002C0000002B00000028
:1050D0002A0000000F0000000C0000000B00000080
:1050E0000A0000000900000008000000290000007C
:1050F0002800000027000000260000003F000000FC
:105100003E0000003D0000003C0000003B000000AD
:105110003A00000039000000380000001F000000C5
:105120004200000043000000440000004500000071
:10513000460000002D0000002000000021000000BB
:105140002200000023000000000000000100000019
:105150000200000003000000040000000500000041
:1051600024000000250000001000000011000000D5
:105170000600000007000000470000004800000093
:10518000490000004A0000004B0000004C000000F5
:105190004D0000004E0000004F0000001A0000000B
:1051A0001B0000001C0000001D0000001E0000008D
:1051B00014000000060007000800000000000000C6
:1051C00000000000273B0008D53B00080B3B00080F
:1051D000B73D0008E13A0008753E0008F13A0008C2
:1051E0004F3F0008713F000859F3F8C21F6EA50138
:0851F000000000000000F03F88
:0851F80090AFFF7F01000000F1
:10520000A13F0008B90B0008D10C0008F5140008F4
:08521000B92C0008A53E0008BE
:0C521800950B000805150008912D0008FA
:105224000100000028020020D40100208001002099
:10523400D80000202C010020010000001000000014
:10524400000002400004024000080240000C02403A
:10525400001002400014024000180240001C0240EA
:105264000020024000300240000000000024F4004E
:10527400A807002058000020000000006806002055
:10528400D0060020380700200000000000000000C5
:10529400000000000000000000000000000000000A
:1052A40000000000000000000000000000000000FA
:1052B40000000000000000000000000000000000EA
:0452C40000000000E6
:0400000508003FC5EB
:00000001FF
